{
  "_format": "hh-sol-artifact-1",
  "contractName": "InvestmentClub",
  "sourceName": "contracts/InvestmentClub.sol",
  "abi": [
    {
      "inputs": [],
      "stateMutability": "nonpayable",
      "type": "constructor"
    },
    {
      "inputs": [
        {
          "internalType": "uint256",
          "name": "clubId",
          "type": "uint256"
        },
        {
          "internalType": "uint256",
          "name": "proposalId",
          "type": "uint256"
        }
      ],
      "name": "closeProposal",
      "outputs": [],
      "stateMutability": "nonpayable",
      "type": "function"
    },
    {
      "inputs": [
        {
          "internalType": "uint256",
          "name": "clubId",
          "type": "uint256"
        }
      ],
      "name": "contributeToClub",
      "outputs": [],
      "stateMutability": "payable",
      "type": "function"
    },
    {
      "inputs": [
        {
          "internalType": "string",
          "name": "name",
          "type": "string"
        },
        {
          "internalType": "string",
          "name": "Cid",
          "type": "string"
        }
      ],
      "name": "createClub",
      "outputs": [
        {
          "internalType": "uint256",
          "name": "",
          "type": "uint256"
        }
      ],
      "stateMutability": "nonpayable",
      "type": "function"
    },
    {
      "inputs": [
        {
          "internalType": "uint256",
          "name": "clubId",
          "type": "uint256"
        },
        {
          "internalType": "uint256",
          "name": "amount",
          "type": "uint256"
        },
        {
          "internalType": "address",
          "name": "destination",
          "type": "address"
        },
        {
          "internalType": "string",
          "name": "description",
          "type": "string"
        },
        {
          "internalType": "string",
          "name": "Cid",
          "type": "string"
        }
      ],
      "name": "createProposal",
      "outputs": [],
      "stateMutability": "nonpayable",
      "type": "function"
    },
    {
      "inputs": [
        {
          "internalType": "uint256",
          "name": "clubId",
          "type": "uint256"
        },
        {
          "internalType": "uint256",
          "name": "proposalId",
          "type": "uint256"
        }
      ],
      "name": "executeProposal",
      "outputs": [],
      "stateMutability": "payable",
      "type": "function"
    },
    {
      "inputs": [
        {
          "internalType": "address",
          "name": "userAddress",
          "type": "address"
        },
        {
          "internalType": "uint256",
          "name": "clubId",
          "type": "uint256"
        }
      ],
      "name": "getBalanceByClub",
      "outputs": [
        {
          "internalType": "uint256",
          "name": "",
          "type": "uint256"
        }
      ],
      "stateMutability": "view",
      "type": "function"
    },
    {
      "inputs": [
        {
          "internalType": "uint256",
          "name": "clubId",
          "type": "uint256"
        },
        {
          "internalType": "uint256",
          "name": "proposalId",
          "type": "uint256"
        },
        {
          "internalType": "string",
          "name": "_Piece",
          "type": "string"
        },
        {
          "internalType": "string",
          "name": "_carsize",
          "type": "string"
        }
      ],
      "name": "getCarpiece",
      "outputs": [],
      "stateMutability": "nonpayable",
      "type": "function"
    },
    {
      "inputs": [
        {
          "internalType": "uint256",
          "name": "clubId",
          "type": "uint256"
        }
      ],
      "name": "getClubById",
      "outputs": [
        {
          "components": [
            {
              "internalType": "uint256",
              "name": "clubId",
              "type": "uint256"
            },
            {
              "internalType": "string",
              "name": "name",
              "type": "string"
            },
            {
              "internalType": "uint256",
              "name": "memberCount",
              "type": "uint256"
            },
            {
              "internalType": "uint256",
              "name": "proposalCount",
              "type": "uint256"
            },
            {
              "internalType": "uint256",
              "name": "pool",
              "type": "uint256"
            },
            {
              "internalType": "string",
              "name": "CID",
              "type": "string"
            },
            {
              "internalType": "string",
              "name": "posdiverification",
              "type": "string"
            },
            {
              "internalType": "uint256",
              "name": "DealId",
              "type": "uint256"
            }
          ],
          "internalType": "struct InvestmentClub.ClubInfo",
          "name": "",
          "type": "tuple"
        }
      ],
      "stateMutability": "view",
      "type": "function"
    },
    {
      "inputs": [],
      "name": "getMyClubs",
      "outputs": [
        {
          "components": [
            {
              "internalType": "uint256",
              "name": "clubId",
              "type": "uint256"
            },
            {
              "internalType": "string",
              "name": "name",
              "type": "string"
            },
            {
              "internalType": "uint256",
              "name": "memberCount",
              "type": "uint256"
            },
            {
              "internalType": "uint256",
              "name": "proposalCount",
              "type": "uint256"
            },
            {
              "internalType": "uint256",
              "name": "pool",
              "type": "uint256"
            },
            {
              "internalType": "string",
              "name": "CID",
              "type": "string"
            },
            {
              "internalType": "string",
              "name": "posdiverification",
              "type": "string"
            },
            {
              "internalType": "uint256",
              "name": "DealId",
              "type": "uint256"
            }
          ],
          "internalType": "struct InvestmentClub.ClubInfo[]",
          "name": "",
          "type": "tuple[]"
        }
      ],
      "stateMutability": "view",
      "type": "function"
    },
    {
      "inputs": [
        {
          "internalType": "uint256",
          "name": "clubId",
          "type": "uint256"
        },
        {
          "internalType": "uint256",
          "name": "proposalId",
          "type": "uint256"
        }
      ],
      "name": "getProposalById",
      "outputs": [
        {
          "components": [
            {
              "internalType": "uint256",
              "name": "id",
              "type": "uint256"
            },
            {
              "internalType": "address",
              "name": "creator",
              "type": "address"
            },
            {
              "internalType": "uint256",
              "name": "amount",
              "type": "uint256"
            },
            {
              "internalType": "address",
              "name": "destination",
              "type": "address"
            },
            {
              "internalType": "string",
              "name": "status",
              "type": "string"
            },
            {
              "internalType": "string",
              "name": "description",
              "type": "string"
            },
            {
              "internalType": "uint256",
              "name": "votesFor",
              "type": "uint256"
            },
            {
              "internalType": "uint256",
              "name": "votesAgainst",
              "type": "uint256"
            },
            {
              "internalType": "uint256",
              "name": "proposedAt",
              "type": "uint256"
            },
            {
              "internalType": "uint256",
              "name": "proposalExpireAt",
              "type": "uint256"
            },
            {
              "internalType": "string",
              "name": "Cid",
              "type": "string"
            },
            {
              "internalType": "string",
              "name": "PieceCid",
              "type": "string"
            },
            {
              "internalType": "string",
              "name": "carsize",
              "type": "string"
            },
            {
              "internalType": "string",
              "name": "posdiverification",
              "type": "string"
            },
            {
              "internalType": "string",
              "name": "storageProvider",
              "type": "string"
            },
            {
              "internalType": "uint256",
              "name": "DealId",
              "type": "uint256"
            }
          ],
          "internalType": "struct InvestmentClub.ProposalInfo",
          "name": "",
          "type": "tuple"
        }
      ],
      "stateMutability": "view",
      "type": "function"
    },
    {
      "inputs": [
        {
          "internalType": "uint256",
          "name": "clubId",
          "type": "uint256"
        }
      ],
      "name": "getProposalsByClub",
      "outputs": [
        {
          "components": [
            {
              "internalType": "uint256",
              "name": "id",
              "type": "uint256"
            },
            {
              "internalType": "address",
              "name": "creator",
              "type": "address"
            },
            {
              "internalType": "uint256",
              "name": "amount",
              "type": "uint256"
            },
            {
              "internalType": "address",
              "name": "destination",
              "type": "address"
            },
            {
              "internalType": "string",
              "name": "status",
              "type": "string"
            },
            {
              "internalType": "string",
              "name": "description",
              "type": "string"
            },
            {
              "internalType": "uint256",
              "name": "votesFor",
              "type": "uint256"
            },
            {
              "internalType": "uint256",
              "name": "votesAgainst",
              "type": "uint256"
            },
            {
              "internalType": "uint256",
              "name": "proposedAt",
              "type": "uint256"
            },
            {
              "internalType": "uint256",
              "name": "proposalExpireAt",
              "type": "uint256"
            },
            {
              "internalType": "string",
              "name": "Cid",
              "type": "string"
            },
            {
              "internalType": "string",
              "name": "PieceCid",
              "type": "string"
            },
            {
              "internalType": "string",
              "name": "carsize",
              "type": "string"
            },
            {
              "internalType": "string",
              "name": "posdiverification",
              "type": "string"
            },
            {
              "internalType": "string",
              "name": "storageProvider",
              "type": "string"
            },
            {
              "internalType": "uint256",
              "name": "DealId",
              "type": "uint256"
            }
          ],
          "internalType": "struct InvestmentClub.ProposalInfo[]",
          "name": "",
          "type": "tuple[]"
        }
      ],
      "stateMutability": "view",
      "type": "function"
    },
    {
      "inputs": [
        {
          "internalType": "uint256",
          "name": "clubId",
          "type": "uint256"
        },
        {
          "internalType": "uint256",
          "name": "proposalId",
          "type": "uint256"
        },
        {
          "internalType": "uint256",
          "name": "_dealId",
          "type": "uint256"
        },
        {
          "internalType": "string",
          "name": "_storage",
          "type": "string"
        }
      ],
      "name": "getdelandstorgae",
      "outputs": [],
      "stateMutability": "nonpayable",
      "type": "function"
    },
    {
      "inputs": [
        {
          "internalType": "address",
          "name": "sender",
          "type": "address"
        },
        {
          "internalType": "uint256",
          "name": "proposalId",
          "type": "uint256"
        },
        {
          "internalType": "uint256",
          "name": "clubId",
          "type": "uint256"
        }
      ],
      "name": "hasVoted",
      "outputs": [
        {
          "internalType": "bool",
          "name": "",
          "type": "bool"
        }
      ],
      "stateMutability": "view",
      "type": "function"
    },
    {
      "inputs": [
        {
          "internalType": "uint256",
          "name": "clubId",
          "type": "uint256"
        }
      ],
      "name": "isClubFull",
      "outputs": [
        {
          "internalType": "bool",
          "name": "",
          "type": "bool"
        }
      ],
      "stateMutability": "view",
      "type": "function"
    },
    {
      "inputs": [
        {
          "internalType": "uint256",
          "name": "clubId",
          "type": "uint256"
        }
      ],
      "name": "isClubIdExist",
      "outputs": [
        {
          "internalType": "bool",
          "name": "",
          "type": "bool"
        }
      ],
      "stateMutability": "view",
      "type": "function"
    },
    {
      "inputs": [
        {
          "internalType": "address",
          "name": "memberAddress",
          "type": "address"
        },
        {
          "internalType": "uint256",
          "name": "clubId",
          "type": "uint256"
        }
      ],
      "name": "isMemberOfClub",
      "outputs": [
        {
          "internalType": "bool",
          "name": "",
          "type": "bool"
        }
      ],
      "stateMutability": "view",
      "type": "function"
    },
    {
      "inputs": [
        {
          "internalType": "uint256",
          "name": "proposalId",
          "type": "uint256"
        },
        {
          "internalType": "uint256",
          "name": "clubId",
          "type": "uint256"
        }
      ],
      "name": "isProposalIdExist",
      "outputs": [
        {
          "internalType": "bool",
          "name": "",
          "type": "bool"
        }
      ],
      "stateMutability": "view",
      "type": "function"
    },
    {
      "inputs": [
        {
          "internalType": "uint256",
          "name": "clubId",
          "type": "uint256"
        },
        {
          "internalType": "uint256",
          "name": "proposalId",
          "type": "uint256"
        }
      ],
      "name": "isVotingOn",
      "outputs": [
        {
          "internalType": "bool",
          "name": "",
          "type": "bool"
        }
      ],
      "stateMutability": "view",
      "type": "function"
    },
    {
      "inputs": [
        {
          "internalType": "uint256",
          "name": "clubId",
          "type": "uint256"
        }
      ],
      "name": "joinClub",
      "outputs": [],
      "stateMutability": "nonpayable",
      "type": "function"
    },
    {
      "inputs": [
        {
          "internalType": "uint256",
          "name": "clubId",
          "type": "uint256"
        }
      ],
      "name": "leaveClub",
      "outputs": [],
      "stateMutability": "nonpayable",
      "type": "function"
    },
    {
      "inputs": [],
      "name": "listClubs",
      "outputs": [
        {
          "components": [
            {
              "internalType": "uint256",
              "name": "clubId",
              "type": "uint256"
            },
            {
              "internalType": "string",
              "name": "name",
              "type": "string"
            },
            {
              "internalType": "uint256",
              "name": "memberCount",
              "type": "uint256"
            },
            {
              "internalType": "uint256",
              "name": "proposalCount",
              "type": "uint256"
            },
            {
              "internalType": "uint256",
              "name": "pool",
              "type": "uint256"
            },
            {
              "internalType": "string",
              "name": "CID",
              "type": "string"
            },
            {
              "internalType": "string",
              "name": "posdiverification",
              "type": "string"
            },
            {
              "internalType": "uint256",
              "name": "DealId",
              "type": "uint256"
            }
          ],
          "internalType": "struct InvestmentClub.ClubInfo[]",
          "name": "",
          "type": "tuple[]"
        }
      ],
      "stateMutability": "view",
      "type": "function"
    },
    {
      "inputs": [
        {
          "internalType": "uint256",
          "name": "clubId",
          "type": "uint256"
        },
        {
          "internalType": "uint256",
          "name": "proposalId",
          "type": "uint256"
        }
      ],
      "name": "proverifiydocs",
      "outputs": [],
      "stateMutability": "nonpayable",
      "type": "function"
    },
    {
      "inputs": [
        {
          "internalType": "uint256",
          "name": "clubId",
          "type": "uint256"
        }
      ],
      "name": "verifiydocs",
      "outputs": [],
      "stateMutability": "nonpayable",
      "type": "function"
    },
    {
      "inputs": [
        {
          "internalType": "uint256",
          "name": "clubId",
          "type": "uint256"
        },
        {
          "internalType": "uint256",
          "name": "proposalId",
          "type": "uint256"
        },
        {
          "internalType": "bool",
          "name": "vote",
          "type": "bool"
        }
      ],
      "name": "voteOnProposal",
      "outputs": [],
      "stateMutability": "nonpayable",
      "type": "function"
    }
  ],
  "bytecode": "0x608060405234801561001057600080fd5b506000600181905550614aa9806100286000396000f3fe60806040526004361061014b5760003560e01c8063647e598b116100b6578063ab7ca3481161006f578063ab7ca348146104a8578063c3741fed146104e5578063c467087814610522578063e15427421461055f578063e7613ea814610588578063eec8e0db146105b15761014b565b8063647e598b1461038a5780636764fd48146103b357806382b7661b146103f0578063890e24561461041957806389972a32146104565780639d9087b91461047f5761014b565b806334fa3d831161010857806334fa3d831461026857806335a1930f146102a55780634d7f75c3146102e2578063549710be1461030b57806354a2e233146103365780635ff847fb1461035f5761014b565b8063058694a9146101505780630ee294041461018d5780631063fd19146101ca57806314204fc6146101f35780631ab7671214610230578063288509b41461024c575b600080fd5b34801561015c57600080fd5b50610177600480360381019061017291906131b8565b6105ee565b6040516101849190613512565b60405180910390f35b34801561019957600080fd5b506101b460048036038101906101af9190613560565b610bf0565b6040516101c191906135ce565b60405180910390f35b3480156101d657600080fd5b506101f160048036038101906101ec919061371e565b610c6f565b005b3480156101ff57600080fd5b5061021a600480360381019061021591906137a1565b610cc2565b6040516102279190613963565b60405180910390f35b61024a600480360381019061024591906137a1565b611262565b005b610266600480360381019061026191906131b8565b611506565b005b34801561027457600080fd5b5061028f600480360381019061028a9190613985565b611670565b60405161029c91906135ce565b60405180910390f35b3480156102b157600080fd5b506102cc60048036038101906102c791906139c5565b61171f565b6040516102d99190613a4c565b60405180910390f35b3480156102ee57600080fd5b50610309600480360381019061030491906131b8565b6118c8565b005b34801561031757600080fd5b50610320611a02565b60405161032d9190613be7565b60405180910390f35b34801561034257600080fd5b5061035d60048036038101906103589190613c35565b611cd4565b005b34801561036b57600080fd5b50610374611fab565b6040516103819190613be7565b60405180910390f35b34801561039657600080fd5b506103b160048036038101906103ac9190613c88565b612262565b005b3480156103bf57600080fd5b506103da60048036038101906103d591906131b8565b6122c5565b6040516103e791906135ce565b60405180910390f35b3480156103fc57600080fd5b50610417600480360381019061041291906131b8565b6122e7565b005b34801561042557600080fd5b50610440600480360381019061043b9190613985565b612397565b60405161044d9190613a4c565b60405180910390f35b34801561046257600080fd5b5061047d60048036038101906104789190613d27565b612402565b005b34801561048b57600080fd5b506104a660048036038101906104a191906137a1565b6127cb565b005b3480156104b457600080fd5b506104cf60048036038101906104ca91906137a1565b612848565b6040516104dc91906135ce565b60405180910390f35b3480156104f157600080fd5b5061050c600480360381019061050791906131b8565b612883565b6040516105199190613e98565b60405180910390f35b34801561052e57600080fd5b50610549600480360381019061054491906131b8565b612ae9565b60405161055691906135ce565b60405180910390f35b34801561056b57600080fd5b50610586600480360381019061058191906131b8565b612b0b565b005b34801561059457600080fd5b506105af60048036038101906105aa91906137a1565b612ce2565b005b3480156105bd57600080fd5b506105d860048036038101906105d391906137a1565b612f19565b6040516105e591906135ce565b60405180910390f35b60606105f9826122c5565b610638576040517f08c379a000000000000000000000000000000000000000000000000000000000815260040161062f90613f17565b60405180910390fd5b600080600084815260200190815260200160002090506000816006015467ffffffffffffffff81111561066e5761066d6135f3565b5b6040519080825280602002602001820160405280156106a757816020015b610694612fdd565b81526020019060019003908161068c5790505b509050600080600190505b83600601548111610be45760008460050160008381526020019081526020016000209050604051806102000160405280826000015481526020018260010160009054906101000a900473ffffffffffffffffffffffffffffffffffffffff1673ffffffffffffffffffffffffffffffffffffffff168152602001826002015481526020018260030160009054906101000a900473ffffffffffffffffffffffffffffffffffffffff1673ffffffffffffffffffffffffffffffffffffffff16815260200182600401805461078590613f66565b80601f01602080910402602001604051908101604052809291908181526020018280546107b190613f66565b80156107fe5780601f106107d3576101008083540402835291602001916107fe565b820191906000526020600020905b8154815290600101906020018083116107e157829003601f168201915b5050505050815260200182600501805461081790613f66565b80601f016020809104026020016040519081016040528092919081815260200182805461084390613f66565b80156108905780601f1061086557610100808354040283529160200191610890565b820191906000526020600020905b81548152906001019060200180831161087357829003601f168201915b505050505081526020018260060154815260200182600701548152602001826008015481526020018260090154815260200182600a0180546108d190613f66565b80601f01602080910402602001604051908101604052809291908181526020018280546108fd90613f66565b801561094a5780601f1061091f5761010080835404028352916020019161094a565b820191906000526020600020905b81548152906001019060200180831161092d57829003601f168201915b5050505050815260200182600b01805461096390613f66565b80601f016020809104026020016040519081016040528092919081815260200182805461098f90613f66565b80156109dc5780601f106109b1576101008083540402835291602001916109dc565b820191906000526020600020905b8154815290600101906020018083116109bf57829003601f168201915b5050505050815260200182600c0180546109f590613f66565b80601f0160208091040260200160405190810160405280929190818152602001828054610a2190613f66565b8015610a6e5780601f10610a4357610100808354040283529160200191610a6e565b820191906000526020600020905b815481529060010190602001808311610a5157829003601f168201915b5050505050815260200182600d018054610a8790613f66565b80601f0160208091040260200160405190810160405280929190818152602001828054610ab390613f66565b8015610b005780601f10610ad557610100808354040283529160200191610b00565b820191906000526020600020905b815481529060010190602001808311610ae357829003601f168201915b5050505050815260200182600e018054610b1990613f66565b80601f0160208091040260200160405190810160405280929190818152602001828054610b4590613f66565b8015610b925780601f10610b6757610100808354040283529160200191610b92565b820191906000526020600020905b815481529060010190602001808311610b7557829003601f168201915b5050505050815260200182600f0154815250848481518110610bb757610bb6613f98565b5b60200260200101819052508280610bcd90613ff6565b935050508080610bdc90613ff6565b9150506106b2565b50819350505050919050565b6000806000838152602001908152602001600020600501600084815260200190815260200160002060100160008573ffffffffffffffffffffffffffffffffffffffff1673ffffffffffffffffffffffffffffffffffffffff16815260200190815260200160002060009054906101000a900460ff1690509392505050565b6000806000868152602001908152602001600020600501600085815260200190815260200160002090508281600f01819055508181600e019080519060200190610cba929190613086565b505050505050565b610cca612fdd565b610cd3836122c5565b610d12576040517f08c379a0000000000000000000000000000000000000000000000000000000008152600401610d099061408b565b60405180910390fd5b610d1c8284612f19565b610d5b576040517f08c379a0000000000000000000000000000000000000000000000000000000008152600401610d52906140f7565b60405180910390fd5b6000806000858152602001908152602001600020600501600084815260200190815260200160002090506000604051806102000160405280836000015481526020018360010160009054906101000a900473ffffffffffffffffffffffffffffffffffffffff1673ffffffffffffffffffffffffffffffffffffffff168152602001836002015481526020018360030160009054906101000a900473ffffffffffffffffffffffffffffffffffffffff1673ffffffffffffffffffffffffffffffffffffffff168152602001836004018054610e3690613f66565b80601f0160208091040260200160405190810160405280929190818152602001828054610e6290613f66565b8015610eaf5780601f10610e8457610100808354040283529160200191610eaf565b820191906000526020600020905b815481529060010190602001808311610e9257829003601f168201915b50505050508152602001836005018054610ec890613f66565b80601f0160208091040260200160405190810160405280929190818152602001828054610ef490613f66565b8015610f415780601f10610f1657610100808354040283529160200191610f41565b820191906000526020600020905b815481529060010190602001808311610f2457829003601f168201915b505050505081526020018360060154815260200183600701548152602001836008015481526020018360090154815260200183600a018054610f8290613f66565b80601f0160208091040260200160405190810160405280929190818152602001828054610fae90613f66565b8015610ffb5780601f10610fd057610100808354040283529160200191610ffb565b820191906000526020600020905b815481529060010190602001808311610fde57829003601f168201915b5050505050815260200183600b01805461101490613f66565b80601f016020809104026020016040519081016040528092919081815260200182805461104090613f66565b801561108d5780601f106110625761010080835404028352916020019161108d565b820191906000526020600020905b81548152906001019060200180831161107057829003601f168201915b5050505050815260200183600c0180546110a690613f66565b80601f01602080910402602001604051908101604052809291908181526020018280546110d290613f66565b801561111f5780601f106110f45761010080835404028352916020019161111f565b820191906000526020600020905b81548152906001019060200180831161110257829003601f168201915b5050505050815260200183600d01805461113890613f66565b80601f016020809104026020016040519081016040528092919081815260200182805461116490613f66565b80156111b15780601f10611186576101008083540402835291602001916111b1565b820191906000526020600020905b81548152906001019060200180831161119457829003601f168201915b5050505050815260200183600e0180546111ca90613f66565b80601f01602080910402602001604051908101604052809291908181526020018280546111f690613f66565b80156112435780601f1061121857610100808354040283529160200191611243565b820191906000526020600020905b81548152906001019060200180831161122657829003601f168201915b5050505050815260200183600f01548152509050809250505092915050565b600080600084815260200190815260200160002090506000816005016000848152602001908152602001600020905061129a846122c5565b6112d9576040517f08c379a00000000000000000000000000000000000000000000000000000000081526004016112d09061408b565b60405180910390fd5b6112e33385611670565b611322576040517f08c379a000000000000000000000000000000000000000000000000000000000815260040161131990614163565b60405180910390fd5b61132c8385612f19565b61136b576040517f08c379a0000000000000000000000000000000000000000000000000000000008152600401611362906140f7565b60405180910390fd5b6113758484612f50565b6113b4576040517f08c379a00000000000000000000000000000000000000000000000000000000081526004016113ab906141f5565b60405180910390fd5b8060020154826004015410156113ff576040517f08c379a00000000000000000000000000000000000000000000000000000000081526004016113f690614287565b60405180910390fd5b8060070154816006015411611449576040517f08c379a000000000000000000000000000000000000000000000000000000000815260040161144090614319565b60405180910390fd5b6114538484612848565b15611493576040517f08c379a000000000000000000000000000000000000000000000000000000000815260040161148a906143ab565b60405180910390fd5b6040518060400160405280600881526020017f45786563757465640000000000000000000000000000000000000000000000008152508160040190805190602001906114e0929190613086565b5080600201548260040160008282546114f991906143cb565b9250508190555050505050565b61150f816122c5565b61154e576040517f08c379a00000000000000000000000000000000000000000000000000000000081526004016115459061408b565b60405180910390fd5b6000806000838152602001908152602001600020905061156e3383611670565b6115ad576040517f08c379a00000000000000000000000000000000000000000000000000000000081526004016115a490614163565b60405180910390fd5b600034116115f0576040517f08c379a00000000000000000000000000000000000000000000000000000000081526004016115e790614471565b60405180910390fd5b60008160020160003373ffffffffffffffffffffffffffffffffffffffff1673ffffffffffffffffffffffffffffffffffffffff1681526020019081526020016000209050348160010160008282546116499190614491565b92505081905550348260040160008282546116649190614491565b92505081905550505050565b60008073ffffffffffffffffffffffffffffffffffffffff1660008084815260200190815260200160002060020160008573ffffffffffffffffffffffffffffffffffffffff1673ffffffffffffffffffffffffffffffffffffffff16815260200190815260200160002060000160009054906101000a900473ffffffffffffffffffffffffffffffffffffffff1673ffffffffffffffffffffffffffffffffffffffff161415905092915050565b600080600180546117309190614491565b90506000806000838152602001908152602001600020905081816000018190555084816001019080519060200190611769929190613086565b50600081600401819055506000816006018190555060018160030181905550838160070190805190602001906117a0929190613086565b506040518060400160405280600b81526020017f556e2d56657269666965640000000000000000000000000000000000000000008152508160080190805190602001906117ee929190613086565b50600060405180604001604052803373ffffffffffffffffffffffffffffffffffffffff16815260200160008152509050808260020160003373ffffffffffffffffffffffffffffffffffffffff1673ffffffffffffffffffffffffffffffffffffffff16815260200190815260200160002060008201518160000160006101000a81548173ffffffffffffffffffffffffffffffffffffffff021916908373ffffffffffffffffffffffffffffffffffffffff160217905550602082015181600101559050508260018190555082935050505092915050565b6118d1816122c5565b611910576040517f08c379a00000000000000000000000000000000000000000000000000000000081526004016119079061408b565b60405180910390fd5b600080600083815260200190815260200160002090506119303383611670565b61196f576040517f08c379a000000000000000000000000000000000000000000000000000000000815260040161196690614163565b60405180910390fd5b600181600301600082825461198491906143cb565b925050819055508060020160003373ffffffffffffffffffffffffffffffffffffffff1673ffffffffffffffffffffffffffffffffffffffff168152602001908152602001600020600080820160006101000a81549073ffffffffffffffffffffffffffffffffffffffff0219169055600182016000905550505050565b6060600060015467ffffffffffffffff811115611a2257611a216135f3565b5b604051908082528060200260200182016040528015611a5b57816020015b611a4861310c565b815260200190600190039081611a405790505b509050600080600190505b6001548111611ccb5760008060008381526020019081526020016000209050611a93338260000154611670565b15611cb75760405180610100016040528082600001548152602001826001018054611abd90613f66565b80601f0160208091040260200160405190810160405280929190818152602001828054611ae990613f66565b8015611b365780601f10611b0b57610100808354040283529160200191611b36565b820191906000526020600020905b815481529060010190602001808311611b1957829003601f168201915b50505050508152602001826003015481526020018260060154815260200182600401548152602001826007018054611b6d90613f66565b80601f0160208091040260200160405190810160405280929190818152602001828054611b9990613f66565b8015611be65780601f10611bbb57610100808354040283529160200191611be6565b820191906000526020600020905b815481529060010190602001808311611bc957829003601f168201915b50505050508152602001826008018054611bff90613f66565b80601f0160208091040260200160405190810160405280929190818152602001828054611c2b90613f66565b8015611c785780601f10611c4d57610100808354040283529160200191611c78565b820191906000526020600020905b815481529060010190602001808311611c5b57829003601f168201915b505050505081526020018260090154815250848481518110611c9d57611c9c613f98565b5b60200260200101819052508280611cb390613ff6565b9350505b508080611cc390613ff6565b915050611a66565b50819250505090565b611cdd836122c5565b611d1c576040517f08c379a0000000000000000000000000000000000000000000000000000000008152600401611d139061408b565b60405180910390fd5b611d268383612848565b611d65576040517f08c379a0000000000000000000000000000000000000000000000000000000008152600401611d5c90614533565b60405180910390fd5b60008060008581526020019081526020016000209050611d853385611670565b611dc4576040517f08c379a0000000000000000000000000000000000000000000000000000000008152600401611dbb90614163565b60405180910390fd5b611dce8385612f19565b611e0d576040517f08c379a0000000000000000000000000000000000000000000000000000000008152600401611e04906140f7565b60405180910390fd5b60008160050160008581526020019081526020016000209050611e31338587610bf0565b15611e71576040517f08c379a0000000000000000000000000000000000000000000000000000000008152600401611e68906145c5565b60405180910390fd5b6040518060400160405280600781526020017f50656e64696e67000000000000000000000000000000000000000000000000008152508051906020012081600401604051611ebf9190614684565b604051809103902014611f07576040517f08c379a0000000000000000000000000000000000000000000000000000000008152600401611efe9061470d565b60405180910390fd5b828160100160003373ffffffffffffffffffffffffffffffffffffffff1673ffffffffffffffffffffffffffffffffffffffff16815260200190815260200160002060006101000a81548160ff0219169083151502179055508215611f87576001816006016000828254611f7b9190614491565b92505081905550611fa4565b6001816007016000828254611f9c9190614491565b925050819055505b5050505050565b6060600060015467ffffffffffffffff811115611fcb57611fca6135f3565b5b60405190808252806020026020018201604052801561200457816020015b611ff161310c565b815260200190600190039081611fe95790505b50905060005b60015481101561225a5760008060006001846120269190614491565b815260200190815260200160002090506040518061010001604052808260000154815260200182600101805461205b90613f66565b80601f016020809104026020016040519081016040528092919081815260200182805461208790613f66565b80156120d45780601f106120a9576101008083540402835291602001916120d4565b820191906000526020600020905b8154815290600101906020018083116120b757829003601f168201915b5050505050815260200182600301548152602001826006015481526020018260040154815260200182600701805461210b90613f66565b80601f016020809104026020016040519081016040528092919081815260200182805461213790613f66565b80156121845780601f1061215957610100808354040283529160200191612184565b820191906000526020600020905b81548152906001019060200180831161216757829003601f168201915b5050505050815260200182600801805461219d90613f66565b80601f01602080910402602001604051908101604052809291908181526020018280546121c990613f66565b80156122165780601f106121eb57610100808354040283529160200191612216565b820191906000526020600020905b8154815290600101906020018083116121f957829003601f168201915b50505050508152602001826009015481525083838151811061223b5761223a613f98565b5b602002602001018190525050808061225290613ff6565b91505061200a565b508091505090565b6000806000868152602001908152602001600020600501600085815260200190815260200160002090508281600b0190805190602001906122a4929190613086565b508181600c0190805190602001906122bd929190613086565b505050505050565b6000806000808481526020019081526020016000206000015414159050919050565b6122f0816122c5565b61232f576040517f08c379a000000000000000000000000000000000000000000000000000000000815260040161232690614779565b60405180910390fd5b600080600083815260200190815260200160002090506040518060400160405280600881526020017f5665726966696564000000000000000000000000000000000000000000000000815250816008019080519060200190612392929190613086565b505050565b600080600080848152602001908152602001600020905060008160020160008673ffffffffffffffffffffffffffffffffffffffff1673ffffffffffffffffffffffffffffffffffffffff168152602001908152602001600020905080600101549250505092915050565b61240b856122c5565b61244a576040517f08c379a00000000000000000000000000000000000000000000000000000000081526004016124419061408b565b60405180910390fd5b6000806000878152602001908152602001600020905061246a3387611670565b6124a9576040517f08c379a00000000000000000000000000000000000000000000000000000000081526004016124a090614163565b60405180910390fd5b600085116124ec576040517f08c379a00000000000000000000000000000000000000000000000000000000081526004016124e39061480b565b60405180910390fd5b6000600182600601546124ff9190614491565b9050600080600089815260200190815260200160002060050160008381526020019081526020016000209050818160000181905550338160010160006101000a81548173ffffffffffffffffffffffffffffffffffffffff021916908373ffffffffffffffffffffffffffffffffffffffff160217905550868160020181905550858160030160006101000a81548173ffffffffffffffffffffffffffffffffffffffff021916908373ffffffffffffffffffffffffffffffffffffffff1602179055506040518060400160405280600781526020017f50656e64696e6700000000000000000000000000000000000000000000000000815250816004019080519060200190612610929190613086565b5084816005019080519060200190612629929190613086565b50600081600601819055506000816007018190555042816008018190555061012c426126559190614491565b81600901819055508381600a019080519060200190612675929190613086565b506040518060400160405280600a81526020017f494e2050726f636573730000000000000000000000000000000000000000000081525081600b0190805190602001906126c3929190613086565b506040518060400160405280600a81526020017f494e2d50726f636573730000000000000000000000000000000000000000000081525081600c019080519060200190612711929190613086565b50600081600f01819055506040518060400160405280600a81526020017f494e2d50726f636573730000000000000000000000000000000000000000000081525081600e019080519060200190612769929190613086565b506040518060400160405280600b81526020017f556e2d566572696669656400000000000000000000000000000000000000000081525081600d0190805190602001906127b7929190613086565b508183600601819055505050505050505050565b6000806000848152602001908152602001600020600501600083815260200190815260200160002090506040518060400160405280600881526020017f566572696669656400000000000000000000000000000000000000000000000081525081600d019080519060200190612842929190613086565b50505050565b600080600080858152602001908152602001600020600501600084815260200190815260200160002090504281600901541191505092915050565b61288b61310c565b612894826122c5565b6128d3576040517f08c379a00000000000000000000000000000000000000000000000000000000081526004016128ca9061408b565b60405180910390fd5b6000806000848152602001908152602001600020905060006040518061010001604052808360000154815260200183600101805461291090613f66565b80601f016020809104026020016040519081016040528092919081815260200182805461293c90613f66565b80156129895780601f1061295e57610100808354040283529160200191612989565b820191906000526020600020905b81548152906001019060200180831161296c57829003601f168201915b505050505081526020018360030154815260200183600601548152602001836004015481526020018360070180546129c090613f66565b80601f01602080910402602001604051908101604052809291908181526020018280546129ec90613f66565b8015612a395780601f10612a0e57610100808354040283529160200191612a39565b820191906000526020600020905b815481529060010190602001808311612a1c57829003601f168201915b50505050508152602001836008018054612a5290613f66565b80601f0160208091040260200160405190810160405280929190818152602001828054612a7e90613f66565b8015612acb5780601f10612aa057610100808354040283529160200191612acb565b820191906000526020600020905b815481529060010190602001808311612aae57829003601f168201915b50505050508152602001836009015481525090508092505050919050565b6000606360008084815260200190815260200160002060030154109050919050565b612b14816122c5565b612b53576040517f08c379a0000000000000000000000000000000000000000000000000000000008152600401612b4a90614779565b60405180910390fd5b60008060008381526020019081526020016000209050612b7282612ae9565b612bb1576040517f08c379a0000000000000000000000000000000000000000000000000000000008152600401612ba89061489d565b60405180910390fd5b612bbb3383611670565b15612bfb576040517f08c379a0000000000000000000000000000000000000000000000000000000008152600401612bf29061492f565b60405180910390fd5b600060405180604001604052803373ffffffffffffffffffffffffffffffffffffffff16815260200160008152509050808260020160003373ffffffffffffffffffffffffffffffffffffffff1673ffffffffffffffffffffffffffffffffffffffff16815260200190815260200160002060008201518160000160006101000a81548173ffffffffffffffffffffffffffffffffffffffff021916908373ffffffffffffffffffffffffffffffffffffffff160217905550602082015181600101559050506001826003016000828254612cd69190614491565b92505081905550505050565b612ceb826122c5565b612d2a576040517f08c379a0000000000000000000000000000000000000000000000000000000008152600401612d219061408b565b60405180910390fd5b612d348183612f19565b612d73576040517f08c379a0000000000000000000000000000000000000000000000000000000008152600401612d6a906140f7565b60405180910390fd5b612d7d8282612848565b15612dbd576040517f08c379a0000000000000000000000000000000000000000000000000000000008152600401612db4906143ab565b60405180910390fd5b6000806000848152602001908152602001600020600501600083815260200190815260200160002090506040518060400160405280600781526020017f50656e64696e67000000000000000000000000000000000000000000000000008152508051906020012081600401604051612e359190614684565b604051809103902014612e7d576040517f08c379a0000000000000000000000000000000000000000000000000000000008152600401612e74906149c1565b60405180910390fd5b612e878383612f50565b612ec6576040517f08c379a0000000000000000000000000000000000000000000000000000000008152600401612ebd90614a53565b60405180910390fd5b6040518060400160405280600681526020017f436c6f7365640000000000000000000000000000000000000000000000000000815250816004019080519060200190612f13929190613086565b50505050565b6000806000808481526020019081526020016000206005016000858152602001908152602001600020600001541415905092915050565b6000806000808581526020019081526020016000209050600081600501600085815260200190815260200160002090508060010160009054906101000a900473ffffffffffffffffffffffffffffffffffffffff1673ffffffffffffffffffffffffffffffffffffffff163373ffffffffffffffffffffffffffffffffffffffff16149250505092915050565b60405180610200016040528060008152602001600073ffffffffffffffffffffffffffffffffffffffff16815260200160008152602001600073ffffffffffffffffffffffffffffffffffffffff1681526020016060815260200160608152602001600081526020016000815260200160008152602001600081526020016060815260200160608152602001606081526020016060815260200160608152602001600081525090565b82805461309290613f66565b90600052602060002090601f0160209004810192826130b457600085556130fb565b82601f106130cd57805160ff19168380011785556130fb565b828001600101855582156130fb579182015b828111156130fa5782518255916020019190600101906130df565b5b5090506131089190613151565b5090565b60405180610100016040528060008152602001606081526020016000815260200160008152602001600081526020016060815260200160608152602001600081525090565b5b8082111561316a576000816000905550600101613152565b5090565b6000604051905090565b600080fd5b600080fd5b6000819050919050565b61319581613182565b81146131a057600080fd5b50565b6000813590506131b28161318c565b92915050565b6000602082840312156131ce576131cd613178565b5b60006131dc848285016131a3565b91505092915050565b600081519050919050565b600082825260208201905092915050565b6000819050602082019050919050565b61321a81613182565b82525050565b600073ffffffffffffffffffffffffffffffffffffffff82169050919050565b600061324b82613220565b9050919050565b61325b81613240565b82525050565b600081519050919050565b600082825260208201905092915050565b60005b8381101561329b578082015181840152602081019050613280565b838111156132aa576000848401525b50505050565b6000601f19601f8301169050919050565b60006132cc82613261565b6132d6818561326c565b93506132e681856020860161327d565b6132ef816132b0565b840191505092915050565b6000610200830160008301516133136000860182613211565b5060208301516133266020860182613252565b5060408301516133396040860182613211565b50606083015161334c6060860182613252565b506080830151848203608086015261336482826132c1565b91505060a083015184820360a086015261337e82826132c1565b91505060c083015161339360c0860182613211565b5060e08301516133a660e0860182613211565b506101008301516133bb610100860182613211565b506101208301516133d0610120860182613211565b506101408301518482036101408601526133ea82826132c1565b91505061016083015184820361016086015261340682826132c1565b91505061018083015184820361018086015261342282826132c1565b9150506101a08301518482036101a086015261343e82826132c1565b9150506101c08301518482036101c086015261345a82826132c1565b9150506101e08301516134716101e0860182613211565b508091505092915050565b600061348883836132fa565b905092915050565b6000602082019050919050565b60006134a8826131e5565b6134b281856131f0565b9350836020820285016134c485613201565b8060005b8581101561350057848403895281516134e1858261347c565b94506134ec83613490565b925060208a019950506001810190506134c8565b50829750879550505050505092915050565b6000602082019050818103600083015261352c818461349d565b905092915050565b61353d81613240565b811461354857600080fd5b50565b60008135905061355a81613534565b92915050565b60008060006060848603121561357957613578613178565b5b60006135878682870161354b565b9350506020613598868287016131a3565b92505060406135a9868287016131a3565b9150509250925092565b60008115159050919050565b6135c8816135b3565b82525050565b60006020820190506135e360008301846135bf565b92915050565b600080fd5b600080fd5b7f4e487b7100000000000000000000000000000000000000000000000000000000600052604160045260246000fd5b61362b826132b0565b810181811067ffffffffffffffff8211171561364a576136496135f3565b5b80604052505050565b600061365d61316e565b90506136698282613622565b919050565b600067ffffffffffffffff821115613689576136886135f3565b5b613692826132b0565b9050602081019050919050565b82818337600083830152505050565b60006136c16136bc8461366e565b613653565b9050828152602081018484840111156136dd576136dc6135ee565b5b6136e884828561369f565b509392505050565b600082601f830112613705576137046135e9565b5b81356137158482602086016136ae565b91505092915050565b6000806000806080858703121561373857613737613178565b5b6000613746878288016131a3565b9450506020613757878288016131a3565b9350506040613768878288016131a3565b925050606085013567ffffffffffffffff8111156137895761378861317d565b5b613795878288016136f0565b91505092959194509250565b600080604083850312156137b8576137b7613178565b5b60006137c6858286016131a3565b92505060206137d7858286016131a3565b9150509250929050565b6000610200830160008301516137fa6000860182613211565b50602083015161380d6020860182613252565b5060408301516138206040860182613211565b5060608301516138336060860182613252565b506080830151848203608086015261384b82826132c1565b91505060a083015184820360a086015261386582826132c1565b91505060c083015161387a60c0860182613211565b5060e083015161388d60e0860182613211565b506101008301516138a2610100860182613211565b506101208301516138b7610120860182613211565b506101408301518482036101408601526138d182826132c1565b9150506101608301518482036101608601526138ed82826132c1565b91505061018083015184820361018086015261390982826132c1565b9150506101a08301518482036101a086015261392582826132c1565b9150506101c08301518482036101c086015261394182826132c1565b9150506101e08301516139586101e0860182613211565b508091505092915050565b6000602082019050818103600083015261397d81846137e1565b905092915050565b6000806040838503121561399c5761399b613178565b5b60006139aa8582860161354b565b92505060206139bb858286016131a3565b9150509250929050565b600080604083850312156139dc576139db613178565b5b600083013567ffffffffffffffff8111156139fa576139f961317d565b5b613a06858286016136f0565b925050602083013567ffffffffffffffff811115613a2757613a2661317d565b5b613a33858286016136f0565b9150509250929050565b613a4681613182565b82525050565b6000602082019050613a616000830184613a3d565b92915050565b600081519050919050565b600082825260208201905092915050565b6000819050602082019050919050565b600061010083016000830151613aac6000860182613211565b5060208301518482036020860152613ac482826132c1565b9150506040830151613ad96040860182613211565b506060830151613aec6060860182613211565b506080830151613aff6080860182613211565b5060a083015184820360a0860152613b1782826132c1565b91505060c083015184820360c0860152613b3182826132c1565b91505060e0830151613b4660e0860182613211565b508091505092915050565b6000613b5d8383613a93565b905092915050565b6000602082019050919050565b6000613b7d82613a67565b613b878185613a72565b935083602082028501613b9985613a83565b8060005b85811015613bd55784840389528151613bb68582613b51565b9450613bc183613b65565b925060208a01995050600181019050613b9d565b50829750879550505050505092915050565b60006020820190508181036000830152613c018184613b72565b905092915050565b613c12816135b3565b8114613c1d57600080fd5b50565b600081359050613c2f81613c09565b92915050565b600080600060608486031215613c4e57613c4d613178565b5b6000613c5c868287016131a3565b9350506020613c6d868287016131a3565b9250506040613c7e86828701613c20565b9150509250925092565b60008060008060808587031215613ca257613ca1613178565b5b6000613cb0878288016131a3565b9450506020613cc1878288016131a3565b935050604085013567ffffffffffffffff811115613ce257613ce161317d565b5b613cee878288016136f0565b925050606085013567ffffffffffffffff811115613d0f57613d0e61317d565b5b613d1b878288016136f0565b91505092959194509250565b600080600080600060a08688031215613d4357613d42613178565b5b6000613d51888289016131a3565b9550506020613d62888289016131a3565b9450506040613d738882890161354b565b935050606086013567ffffffffffffffff811115613d9457613d9361317d565b5b613da0888289016136f0565b925050608086013567ffffffffffffffff811115613dc157613dc061317d565b5b613dcd888289016136f0565b9150509295509295909350565b600061010083016000830151613df36000860182613211565b5060208301518482036020860152613e0b82826132c1565b9150506040830151613e206040860182613211565b506060830151613e336060860182613211565b506080830151613e466080860182613211565b5060a083015184820360a0860152613e5e82826132c1565b91505060c083015184820360c0860152613e7882826132c1565b91505060e0830151613e8d60e0860182613211565b508091505092915050565b60006020820190508181036000830152613eb28184613dda565b905092915050565b600082825260208201905092915050565b7f436c756220646f6573206e6f7420657869737400000000000000000000000000600082015250565b6000613f01601383613eba565b9150613f0c82613ecb565b602082019050919050565b60006020820190508181036000830152613f3081613ef4565b9050919050565b7f4e487b7100000000000000000000000000000000000000000000000000000000600052602260045260246000fd5b60006002820490506001821680613f7e57607f821691505b60208210811415613f9257613f91613f37565b5b50919050565b7f4e487b7100000000000000000000000000000000000000000000000000000000600052603260045260246000fd5b7f4e487b7100000000000000000000000000000000000000000000000000000000600052601160045260246000fd5b600061400182613182565b91507fffffffffffffffffffffffffffffffffffffffffffffffffffffffffffffffff82141561403457614033613fc7565b5b600182019050919050565b7f74686520636c756220646f6573206e6f74206578697374000000000000000000600082015250565b6000614075601783613eba565b91506140808261403f565b602082019050919050565b600060208201905081810360008301526140a481614068565b9050919050565b7f5468652070726f706f73616c20646f6573206e6f742065786973740000000000600082015250565b60006140e1601b83613eba565b91506140ec826140ab565b602082019050919050565b60006020820190508181036000830152614110816140d4565b9050919050565b7f596f7520617265206e6f742061206d656d626572206f662074686520636c7562600082015250565b600061414d602083613eba565b915061415882614117565b602082019050919050565b6000602082019050818103600083015261417c81614140565b9050919050565b7f4f6e6c79207468652063726561746f72206f66207468652070726f706f73616c60008201527f2063616e20657865637574652069740000000000000000000000000000000000602082015250565b60006141df602f83613eba565b91506141ea82614183565b604082019050919050565b6000602082019050818103600083015261420e816141d2565b9050919050565b7f54686520616d6f756e7420657863656564732074686520706f6f6c206f66207460008201527f686520636c756200000000000000000000000000000000000000000000000000602082015250565b6000614271602783613eba565b915061427c82614215565b604082019050919050565b600060208201905081810360008301526142a081614264565b9050919050565b7f5468652070726f706f73616c20686173206e6f74206265656e20617070726f7660008201527f6564000000000000000000000000000000000000000000000000000000000000602082015250565b6000614303602283613eba565b915061430e826142a7565b604082019050919050565b60006020820190508181036000830152614332816142f6565b9050919050565b7f596f752063616e2774206265666f72652074686520566f74696e67206465616460008201527f6c696e6500000000000000000000000000000000000000000000000000000000602082015250565b6000614395602483613eba565b91506143a082614339565b604082019050919050565b600060208201905081810360008301526143c481614388565b9050919050565b60006143d682613182565b91506143e183613182565b9250828210156143f4576143f3613fc7565b5b828203905092915050565b7f596f75206d7573742073656e642045564d4f5320746f20636f6e74726962757460008201527f6500000000000000000000000000000000000000000000000000000000000000602082015250565b600061445b602183613eba565b9150614466826143ff565b604082019050919050565b6000602082019050818103600083015261448a8161444e565b9050919050565b600061449c82613182565b91506144a783613182565b9250827fffffffffffffffffffffffffffffffffffffffffffffffffffffffffffffffff038211156144dc576144db613fc7565b5b828201905092915050565b7f566f74696e6720506572696f642046696e697368656400000000000000000000600082015250565b600061451d601683613eba565b9150614528826144e7565b602082019050919050565b6000602082019050818103600083015261454c81614510565b9050919050565b7f596f75206861766520616c726561647920766f746564206f6e2074686973207060008201527f726f706f73616c00000000000000000000000000000000000000000000000000602082015250565b60006145af602783613eba565b91506145ba82614553565b604082019050919050565b600060208201905081810360008301526145de816145a2565b9050919050565b600081905092915050565b60008190508160005260206000209050919050565b6000815461461281613f66565b61461c81866145e5565b9450600182166000811461463757600181146146485761467b565b60ff1983168652818601935061467b565b614651856145f0565b60005b8381101561467357815481890152600182019150602081019050614654565b838801955050505b50505092915050565b60006146908284614605565b915081905092915050565b7f5468652070726f706f73616c206973206e6f206c6f6e6765722070656e64696e60008201527f6700000000000000000000000000000000000000000000000000000000000000602082015250565b60006146f7602183613eba565b91506147028261469b565b604082019050919050565b60006020820190508181036000830152614726816146ea565b9050919050565b7f54686520636c756220646f6573206e6f74206578697374000000000000000000600082015250565b6000614763601783613eba565b915061476e8261472d565b602082019050919050565b6000602082019050818103600083015261479281614756565b9050919050565b7f54686520616d6f756e74206f66207468652070726f706f73616c206d7573742060008201527f62652067726561746572207468616e2030000000000000000000000000000000602082015250565b60006147f5603183613eba565b915061480082614799565b604082019050919050565b60006020820190508181036000830152614824816147e8565b9050919050565b7f54686520636c75622069732066756c6c2c206e6f206d6f7265206d656d62657260008201527f732063616e206265206164646564000000000000000000000000000000000000602082015250565b6000614887602e83613eba565b91506148928261482b565b604082019050919050565b600060208201905081810360008301526148b68161487a565b9050919050565b7f596f752061726520616c72656164792061206d656d626572206f66207468652060008201527f636c756200000000000000000000000000000000000000000000000000000000602082015250565b6000614919602483613eba565b9150614924826148bd565b604082019050919050565b600060208201905081810360008301526149488161490c565b9050919050565b7f5468652070726f706f73616c206973206e6f7420696e2070656e64696e67207360008201527f7461747573000000000000000000000000000000000000000000000000000000602082015250565b60006149ab602583613eba565b91506149b68261494f565b604082019050919050565b600060208201905081810360008301526149da8161499e565b9050919050565b7f4f6e6c79207468652070726f706f73616c2063726561746f722063616e20636c60008201527f6f7365207468652070726f706f73616c00000000000000000000000000000000602082015250565b6000614a3d603083613eba565b9150614a48826149e1565b604082019050919050565b60006020820190508181036000830152614a6c81614a30565b905091905056fea26469706673582212200dad3838e72648c4a6c6f1796e6b52473002754edd71607a6c5b28aecbfde04064736f6c634300080a0033",
  "linkReferences": {},
  "deployedLinkReferences": {}
}